:100000000C9417050C943F050C943F050C943F0588
:100010000C943F050C943F050C943F050C943F0550
:100020000C943F050C943F050C94F4120C9463134C
:100030000C943F050C943F050C943F050C943F0530
:100040000C943F050C943F050C943F050C943F0520
:100050000C943F050C943F050C943F050C94F0154F
:100060000C943F050C943F050C943F050C943F0500
:100070000C943F050C943F050C943F050C943F05F0
:100080000C9495150C943F050C943F050C943F057A
:100090000C943F050C943F050C943F050C943F05D0
:1000A0000C943F050C943F050C943F0507634236C2
:1000B000B79BD8A71A39685618AEBAAB558C1D3CF9
:1000C000B7CC5763BD6DEDFD753EF6177231BF00BD
:1000D0000000803F08000000BE922449123EABAAF7
:1000E000AA2ABECDCCCC4C3E00000080BEABAAAA52
:1000F000AA3E00000000BF000000803F000000009A
:1001000000084178D3BB4387D1133D190E3CC3BDD2
:100110004282AD2B3E68EC8276BED98FE1A93E4C7F
:1001200080EFFFBE01C4FF7F3F0000000000091DFB
:10013000000000408080800102404040404040403C
:1001400001000000004020202010000000000000FE
:10015000001008003E3EC0300804020201212101C7
:1001600081012161E141010121216101010121613F
:10017000E1C181012161E1C1810101814121A1A18F
:10018000A1A1A1A1A1A1A1A1A1A1A1A121418202FD
:10019000040830C0FF00000000C78C1C1840E3C3F7
:1001A0000C1C0861E3C786103071E3C78E0C187110
:1001B000E3C78E1C3871E30000FF00FF00000080E1
:1001C000C030181830C080000000FF00FF000000A1
:1001D00000FFFF0000000071E3800E1C380022C702
:1001E0008E1C3871E3C78E1C3871E3C78E1C0071FA
:1001F000E306801C380000FF00FF080808C9C94951
:10020000494949C9C9080808FF00FF00000000FF6C
:10021000FF000000001C3871E0C1860C1830A143BB
:100220000614306163470614383180C68E14387066
:10023000E3C78E0000FF007F8080808081868C8CE9
:100240008681808080807F00FF00000000FFFF002B
:10025000000000C0E0606061E3C302C0E06163438E
:1002600002E0E081C3E36200E0E1036362E0E06199
:1002700060C0E0606162E2C202E2E2E2820202E2A7
:10028000E202E2E262616000000000FFFF000000A5
:10029000000F1F1818181F0F00191B1F1E0E001F1C
:1002A0001F070F1C18001F1F0000001F1F00000F5A
:1002B0001F1818181F0F001F1F01070F1C1F1F00FA
:1002C0001F1F1B1B1B00000000FFFF00000000FEA3
:1002D000FF83EF83FF83FFC7BBBB8BFF83EFEF83FE
:1002E000FF83ABABFF83EBCBB7FFFF83BFBFFF83C6
:1002F000BB83FFE38FE38FE3FF83ABABFF83EBCBEA
:10030000B7FFFE00000000FF0003040810102121C9
:1003100021212121212121212121212121212121CD
:1003200021212121212121212121212121212121BD
:1003300021212121212121212121212121212121AD
:100340001010080403002020444946464943554CF8
:100350005459200047414D45200029002028002005
:100360002D3E20003A200020202020002C003A20A2
:10037000002020524F554E44200000000000003E57
:100380005B4F5B3E3E6B4F6B3E1C3E7C3E1C183C05
:100390007E3C181C577D571C1C5E7F5E1C00183C61
:1003A0001800FFE7C3E7FF0018241800FFE7DBE7AA
:1003B000FF30483A060E2629792926407F05050791
:1003C000407F05253F5A3CE73C5A7F3E1C1C0808ED
:1003D0001C1C3E7F14227F22145F5F005F5F0609B2
:1003E0007F017F006689956A606060606094A2FF0B
:1003F000A29408047E040810207E201008082A1CFD
:1004000008081C2A08081E101010100C1E0C1E0CC8
:1004100030383E3830060E3E0E0600000000000068
:10042000005F00000007000700147F147F14242AD7
:100430007F2A1223130864623649562050000807A9
:100440000300001C2241000041221C002A1C7F1CCA
:100450002A08083E080800807030000808080808CC
:10046000000060600020100804023E5149453E0033
:10047000427F400072494949462141494D33181491
:10048000127F1027454545393C4A494931412111E0
:1004900009073649494936464949291E00001400D2
:1004A00000004034000000081422411414141414F5
:1004B000004122140802015909063E415D594E7C53
:1004C0001211127C7F494949363E414141227F4108
:1004D00041413E7F494949417F090909013E414166
:1004E00051737F0808087F00417F41002040413F51
:1004F000017F081422417F404040407F021C027F60
:100500007F0408107F3E4141413E7F090909063EB4
:100510004151215E7F091929462649494932030183
:100520007F01033F4040403F1F2040201F3F403895
:10053000403F631408146303047804036159494D70
:1005400043007F4141410204081020004141417FA6
:10055000040201020440404040400003070800201C
:10056000545478407F28444438384444442838441C
:1005700044287F385454541800087E090218A4A453
:100580009C787F0804047800447D40002040403D72
:10059000007F1028440000417F40007C04780478EC
:1005A0007C080404783844444438FC18242418187F
:1005B000242418FC7C0804040848545454240404DB
:1005C0003F44243C4040207C1C2040201C3C4030C8
:1005D000403C44281028444C9090907C4464544CF7
:1005E0004400083641000000770000004136080052
:1005F00002010204023C2623263C1EA1A161123AFC
:100600004040207A38545455592155557941215448
:10061000547841215554784020545579400C1E524D
:1006200072123955555559395454545939555454F1
:10063000580000457C410002457D420001457C4058
:10064000F0292429F0F0282528F07C545545002075
:1006500054547C547C0A097F493249494932324812
:10066000484832324A4848303A4141217A3A424079
:100670002078009DA0A07D39444444393D4040404D
:100680003D3C24FF2424487E4943662B2FFC2F2B1E
:10069000FF0929F620C0887E0903205454794100BF
:1006A00000447D413048484A32384040227A007A3E
:1006B0000A0A727D0D19317D2629292F282629291C
:1006C000292630484D40203808080808080808083E
:1006D000382F10C8ACBA2F102834FA00007B000065
:1006E00008142A142222142A14089500220095AA1C
:1006F000005500AAAA55AA55AA000000FF00101034
:1007000010FF00141414FF001010FF00FF1010F071
:1007100010F0141414FC001414F700FF0000FF0084
:10072000FF1414F404FC141417101F10101F101FD2
:100730001414141F00101010F0000000001F1010FF
:1007400010101F10101010F010000000FF101010FB
:10075000101010101010FF10000000FF140000FF18
:1007600000FF00001F10170000FC04F41414171001
:10077000171414F404F40000FF00F71414141414F4
:100780001414F700F7141414171410101F101F146A
:100790001414F4141010F010F000001F101F0000CB
:1007A000001F14000000FC140000F010F01010FFF7
:1007B00010FF141414FF141010101F00000000F09C
:1007C00010FFFFFFFFFFF0F0F0F0F0FFFFFF000071
:1007D000000000FFFF0F0F0F0F0F38444438447C18
:1007E0002A2A3E147E02020606027E027E0263551B
:1007F0004941633844443C04407E201E2006027E6A
:10080000020299A5E7A5991C2A492A1C4C7201727B
:100810004C304A4D4D303048784830BC625A463DE5
:100820003E494949007E0101017E2A2A2A2A2A449A
:10083000445F444440514A444040444A51400000CF
:10084000FF0103E080FF000008086B6B08361236DA
:100850002436060F090F06000018180000001010BB
:10086000003040FF0101001F01011E00191D171279
:10087000003C3C3C3C000000000000000000240064
:1008800027002A002D003000000000002300260071
:1008900029002C002F000000000200090F000003B7
:1008A0000401000C00000000000000000000000037
:1008B0000000000000080B00020202000009040012
:1008C00000010202000005240010010524010101BD
:1008D00004240206052406000107058103100040D8
:1008E00009040100020A000000070502024000009E
:1008F000070583024000000403090412010002EF0F
:10090000020140412336800001010203014172646B
:1009100075696E6F204C4C430041726475626F794B
:1009200000F0F89C8E8783878E9CF8F00000FEFF15
:100930000303030303070EFCF80000FEFF03030399
:100940000303070EFCF80000FFFF0000000000009A
:1009500000FFFF0000FEFF8383838383C7EE7C38A4
:100960000000F8FC0E07030303070EFCF800003F2D
:100970007FE0C08080C0E07F3FFFFF0101010101F7
:100980000101FFFF0000FFFF0C0C0C0C1C3E77E385
:10099000C100007FFFC0C0C0C0C0E0703F1F0000AA
:1009A0001F3F70E0C0C0C0E0703F1F00007FFFC16C
:1009B000C1C1C1C1E3773E1C00001F3F70E0C0C051
:1009C000C0E0703F1F000000000001FFFF010000B9
:1009D00000D5F08D14A1C881CFD9F1AF2000040853
:1009E0000201104080401020408040800802040135
:1009F00080402010020110801020404020000000A4
:100A000000250028002B002E0031000404040404FB
:100A100003040502020202040302020202060606A1
:100A20000606060404020202040403006D161124E3
:100A30001FBECFEFDAE0DEBFCDBF11E0A0E0B1E036
:100A4000E4ECFCE302C005900D92AE34B107D9F797
:100A500025E0AEE4B1E001C01D92AE3EB207E1F781
:100A600015E0C7E1D5E004C02197FE010E943F1EBA
:100A7000C631D107C9F70E948A160C94601E0C94E7
:100A80000000EAE9F1E0A0E0B8E000800EBC8111CE
:100A9000012C1197A0FDFDCF0192B9F70DB4089577
:100AA000FC0180918201882311F13FB7F89482E024
:100AB0008093E9002091F200822F90E01816190629
:100AC00014F481E090E0882339F0289844E64093BC
:100AD00081014091F1004083222339F02091F200FE
:100AE000211103C02BE62093E8003FBF08958FEF4C
:100AF0009FEF08952FB7F89483E08093E9009091D9
:100B0000E800892F807295FF04C09091F20080E484
:100B1000891B2FBF08958091790181110DC082E05A
:100B20008093750184E08093760110927801109291
:100B3000770181E08093790185E791E00895409104
:100B400061015091620120915F0130916001421773
:100B50005307B4F49091E8009570E1F39091E800A8
:100B600092FD19C08093F100809161019091620122
:100B700001968F739927892B19F48EEF8093E800E3
:100B8000809161019091620101969093620180933E
:100B9000610181E0089580E00895DF92EF92FF9275
:100BA0000F931F93CF93DF93D82E8A01EB017B0124
:100BB000E40EF51ECE15DF0559F0D7FE12C0FE017A
:100BC00084910E949F0521968111F4CF0FEF1FEFB2
:100BD000C801DF91CF911F910F91FF90EF90DF90AF
:100BE00008958881EECF0F931F93CF93DF931F92C9
:100BF000CDB7DEB782E0898342E450E065EB78E070
:100C000080E80E94CD050E948B05DC0112960D91B3
:100C10001C910115110589F0D801ED91FC9102801C
:100C2000F381E02DBE016F5F7F4FC801099597FDED
:100C300004C0F80100851185ECCF89810F90DF9108
:100C4000CF911F910F910895615030F02091F100E4
:100C5000FC0120830196F8CF289884E680938101D7
:100C60000895AF92BF92CF92DF92EF92FF920F93CF
:100C70001F93CF93DF936C017B018B01040F151F32
:100C8000EB015E01AE18BF08C017D10759F069919A
:100C9000D601ED91FC910190F081E02DC6010995FE
:100CA000892B79F7C501DF91CF911F910F91FF90AB
:100CB000EF90DF90CF90BF90AF900895CF93DF93E8
:100CC0001F92CDB7DEB76983DC01ED91FC91028004
:100CD000F381E02D41E050E0BE016F5F7F4F099549
:100CE0000F90DF91CF9108950F931F93CF93DF93D0
:100CF0008C01D0E0C0E0F801EC0FFD1F6491662389
:100D000041F08AE995E00E945E06892B11F0219658
:100D1000F2CFCE01DF91CF911F910F91089583E023
:100D20008093E9008091F200882319F08AE3809390
:100D3000E80008950E947A0590E00895CF93DF932C
:100D40001F92CDB7DEB7FC018485958597FD08C05D
:100D50002FEF3FEF358724870F90DF91CF910895D4
:100D6000CE0101960E945005019719F4898190E007
:100D7000F3CF8FEF9FEFF0CF0F931F93CF93DF93BE
:100D80001F92CDB7DEB78C01FC018485958597FF56
:100D90000BC0CE0101960E945005019771F4898124
:100DA00090E0F80195878487F801848595850F90F8
:100DB000DF91CF911F910F9108958FEF9FEFF1CFAA
:100DC000FC018485958597FD0BC09FB7F89482E060
:100DD0008093E9008091F2009FBF90E00196089512
:100DE0009FB7F89482E08093E9008091F2009FBF62
:100DF00090E0089581508F3008F047C0E82FF0E070
:100E0000EC5FF84F0C943F1E2107250713071907C5
:100E10001D0745074507450728072E0732073607F0
:100E20003C0745074007809180008F7780938000C2
:100E30000895809180008F7DF9CF80918000877F19
:100E4000F5CF84B58F7784BD089584B58F7DFBCFB2
:100E5000809190008F77809390000895809190000A
:100E60008F7DF9CF80919000877FF5CF8091C00072
:100E70008F778093C00008958091C0008F7DF9CF57
:100E80008091C200877F8093C2000895CF93DF9343
:100E9000282F30E0F901EA56F74F8491F901E25228
:100EA000F64FD491F901E55FF54FC491CC23A1F041
:100EB00081110E94FA06EC2FF0E0EE0FFF1FE857B9
:100EC000F74FA591B491EC91ED2381E090E009F406
:100ED00080E0DF91CF91089580E090E0FACF1F93FA
:100EE000CF93DF93282F30E0F901EA56F74F849132
:100EF000F901E252F64FD491F901E55FF54FC49143
:100F0000CC23A9F0162F81110E94FA06EC2FF0E0F5
:100F1000EE0FFF1FE350F64FA591B4918FB7F894F1
:100F2000EC91111108C0D095DE23DC938FBFDF91C7
:100F3000CF911F910895DE2BF8CFCF93DF9390E0F0
:100F4000FC01E252F64F2491855F954FFC0184919C
:100F50008823D1F090E0880F991FFC01E658F74FE5
:100F6000A591B491FC01E350F64FC591D491623044
:100F700071F49FB7F8943C91822F809583238C93D2
:100F8000E8812E2B28839FBFDF91CF9108958FB7E3
:100F9000F894EC912E2B2C938FBFF6CF3FB7F8949B
:100FA00080915B0190915C01A0915D01B0915E0127
:100FB00026B5A89B05C02F3F19F00196A11DB11DB4
:100FC0003FBFBA2FA92F982F8827BC01CD01620FF0
:100FD000711D811D911D42E0660F771F881F991FAB
:100FE0004A95D1F708958F929F92AF92BF92CF9278
:100FF000DF92EF92FF926B017C010E94CE074B01C2
:101000005C01C114D104E104F104B9F00E94CE07DF
:10101000681979098A099B09683E73408105910521
:1010200080F321E0C21AD108E108F10888EE880EA9
:1010300083E0981EA11CB11CE4CFFF90EF90DF90DD
:10104000CF90BF90AF909F908F9008958F929F9276
:10105000AF92BF92CF92DF92EF92FF920F931F93C6
:10106000CF93DF936C017B018A0180910B01882370
:1010700009F45CC080918201882309F457C08091F3
:10108000650180FF05C08091E00082608093E000F0
:10109000E801B12C8AEFA82E93E0892E2AE3922E44
:1010A000209711F4BB20D9F10E947A0581110AC062
:1010B000AA94AA20D9F161E070E080E090E00E945B
:1010C000F307EECF8C171D0611F00CF08C2F9FB795
:1010D000F8948092E9002091E80025FD02C09FBFAE
:1010E000DFCF282F30E0C21BD30BF701815020F057
:1010F00041914093F100FACFE20EF31EBB2021F0A4
:101100009092E800B12CEBCF8091E80085FDE7CF0D
:101110009092E800BB24B394209709F3F3CF5D9835
:1011200084E680936401101611063CF081E090E0A3
:10113000F6019383828310E000E0C801DF91CF9134
:101140001F910F91FF90EF90DF90CF90BF90AF90E5
:101150009F908F9008952F923F924F925F926F923F
:101160007F928F929F92AF92BF92CF92DF92EF9237
:10117000FF920F931F93CF93DF9300D000D01F9265
:10118000CDB7DEB75D834C835901EC2D452BD1F1F2
:10119000402F50E0162F17701983A3E075956795BF
:1011A000AA95E1F7262FDA01A80FB91FA038B105DB
:1011B00014F000E8081BA1E0FE2DF77009F4A0E090
:1011C000E694E694E694EA0EDB01AE0DB11D1997A4
:1011D0001CF0F8E0EF2EE61ADB01B695BA2FAA272D
:1011E000B795A7958A0F9B1F3981A32F330FBB0B90
:1011F000E33009F435C1F0F4E13009F4EEC0E23037
:1012000009F453C00F900F900F900F900F90DF9143
:10121000CF911F910F91FF90EF90DF90CF90BF90F3
:10122000AF909F908F907F906F905F904F903F9086
:101230002F900895EA3F09F48CC0EB3F19F7E22F95
:10124000E61BEE15F8F6FC01E656FE4F6F01B12CD9
:10125000A12CEC81FD81A01608F0ACC0EA0DFB1DAD
:101260008490912C0A2E02C0880C991C0A94E2F7F3
:1012700027FD07C0F6017080F82DF0957F22F6015A
:101280007082F980FF2051F0273044F4F601E058D5
:10129000FF4F892C80949080982090821FEFA11A94
:1012A000B10A3FEFC31AD30AD4CF66246A94712CD3
:1012B000098002C0660C771C0A94E2F7609470946F
:1012C000572CE22FE61BEE1508F09CCFFC01E656EA
:1012D000FE4F6F01B12CA12CEC81FD81A01650F5C1
:1012E000EA0DFB1DE491F0E01F010A2E02C0220C62
:1012F000331C0A94E2F727FD05C0F6019080962082
:1013000092289082F980FF2071F0273064F4460122
:1013100010E8810E911CF4014080E42DE5214E2E51
:101320004328F4014082FFEFAF1ABF0A1FEFC11A32
:10133000D10AD2CFE40FF51FFD83EC8380589F4F75
:101340002F5FBFCFE40FF51FFD83EC8380589F4FC5
:101350002F5FE22FE61BEE1508F054CFFC01E65696
:10136000FE4F6F01B12CA12CEC81FD81A01650F72E
:10137000EA0DFB1D8490912C0A2E02C0880C991C4A
:101380000A94E2F727FD04C0F60170807828708285
:10139000F980FF2041F0273034F4F601E058FF4F88
:1013A0008080982890821FEFA11AB10A3FEFC31ADC
:1013B000D30ADACFE40FF51FFD83EC8380589F4FEB
:1013C0002F5F3DCFEC81FD81E40FF51FFD83EC83A2
:1013D000A40EB51E80589F4F2F5FE22FE61BEE151F
:1013E00008F010CFFC01E656FE4F6F01912C812CC6
:1013F000801640F7F501E80DF91D6490712C0A2E56
:1014000002C0660C771C0A94E2F760947094EC8139
:10141000FD81E80DF91D4490512C0A2E02C0440CA8
:10142000551C0A94E2F727FD08C0F6013080E32D31
:10143000E6213E2E3428F6013082F980FF2049F063
:1014400027303CF4F601E058FF4F60807620752885
:1014500070821FEF811A910A3FEFC31AD30AC8CFD7
:10146000E02FF0E086569E4FA0E8B0E06D01CE1A66
:10147000DF0A4E1B5F0B4A01880C991CE1E0F0E08B
:101480005F01098002C0AA0CBB1C0A94E2F7B02ECF
:10149000402F5E2DEC81FD81DC0186019401F980F5
:1014A000CF93DF93ED01EF96EF96229665908590AE
:1014B000FF2059F06A9C30018A9C400167302CF46F
:1014C000C8809094C920C728C99266233AF0CC906E
:1014D0008094C820C628CD920C946F0A11964A9524
:1014E00029F75A9551F04B2D63951124E20FF11D08
:1014F000A00FB11DC00FD11DD9CFDF91CF91112405
:1015000081CE2D9A0895BC0190E080E00C94F30701
:101510008FB18095807F669B88601C9B8460089556
:1015200020E191E061FD94E060FD990F62FD9295EC
:10153000687F269FD0011124A80FA656BE4F8C911C
:1015400040FF03C0892B8C93089590958923FBCF8E
:10155000AF92BF92CF92DF92EF92FF920F931F93C1
:10156000CF93DF935B01EC017C01E40EF11C6B0176
:10157000C20ED11CCE15DF0574F485010C151D05B6
:1015800044F441E0B801CE010E94900A0F5F1F4F62
:10159000F5CF2196EFCFDF91CF911F910F91FF9063
:1015A000EF90DF90CF90BF90AF9008958F929F9271
:1015B000AF92BF92CF92DF92EF92FF920F931F9361
:1015C000CF93DF936D3089F0C0906701D0906801B0
:1015D0006A30D1F410926A011092690188E0C80E55
:1015E000D11CD0926801C092670181E090E0DF9148
:1015F000CF911F910F91FF90EF90DF90CF90BF9010
:10160000AF909F908F9008950091690110916A01A9
:10161000E5E06E9FE0011124C658DC4F5801F12C23
:10162000F5E0E12CFF1629F0CE010196FE01E490D1
:10163000EC01912C812CF0E8AF16B10458F4B601FE
:10164000680D791D6034710528F44E2D4170C50177
:101650000E94900AE6948FEF881A980AE8E08E16A6
:10166000910449F7F394FFEFAF1ABF0A86E0F8122E
:10167000D7CF0A5F1F4F10936A0100936901B5CF5E
:1016800080E00C944105CF92EF920F931F93CF937C
:10169000DF93EC01162F80E0EAE9F1E081118FEF92
:1016A000002481938193819381930394D1F71092C5
:1016B00068011092670110926A0110926901E4E5D5
:1016C000F1E00491E5E5F1E0E49082E0C82E30E03D
:1016D00020E046E551E061E070E080E290E00E94A9
:1016E000AB081123C1F0EEE2F1E00491EFE2F1E08A
:1016F000E49030E020E040E351E068E070E085E114
:1017000090E00E94AB0822E042E068E070E087E2EF
:1017100090E00E94A80A23E044E06EE070E0C1304F
:10172000D10531F0229741F423E044E068E170E014
:101730008DE490E00E94A80ADF91CF911F910F9154
:10174000EF90CF900C94400BCF93DF93EC01CB0143
:10175000642F0E94430BBE01DD0F880B990B0E9482
:10176000F30760E090E080E0DF91CF910C94430BB1
:101770002F923F924F925F926F927F928F929F92A1
:10178000AF92BF92CF92DF92EF92FF920F931F938F
:10179000CF931C018B01C0910D01892B09F04AC028
:1017A000C53069F4EAE2FAE0E4918FEF80930D012D
:1017B000E13071F150F1E33089F1E430A9F160E0FA
:1017C00085E00E946F070115110539F040919901DC
:1017D00070E060E0C8010E94A40B61E089E00E9413
:1017E0006F0710929901CF911F910F91FF90EF9089
:1017F000DF90CF90BF90AF909F908F907F906F9031
:101800005F904F903F902F90089510926E00D7CF29
:1018100080916F008D7F80936F00D1CF8091710098
:101820008D7F80937100CBCF809172008F7B8093EE
:101830007200C5CF81E08093990160E089E00E9449
:101840006F07C530F1F0CF3F09F0BDCF85E0809341
:101850000D01EAE2FAE0C491CF3F09F4B4CFC13000
:1018600009F4A8C008F48DC0C33009F4C1C0C43065
:1018700009F4E0C0C7FDA7CF61E085E00E949D07A5
:101880000BC0EAE2FAE0C491C7FD9DCF61E085E0BC
:101890000E949D07CC2319F0C23009F054C14101C8
:1018A000B12CA12C60E072E18AE790E0A5019101E2
:1018B0000E94FA1929013A017A01690181E0C81AE6
:1018C000D108E108F1088FEFC816D104E104F10452
:1018D00009F00CF432C160E472E48FE090E0A501FD
:1018E00091010E94FA1969017A0181E0C81AD108B0
:1018F000E108F108C23009F0BBC08FEFC816D1046F
:10190000E104F104C1F0BCF060E970ED83E090E027
:10191000A50191010E94FA1969017A0181E0C81AB2
:10192000D108E108F1088FEFC816D104E104F104F1
:1019300011F00CF09BC10115110509F4C8C191010A
:10194000220F331FD8010E94451E28EE33E040E0ED
:1019500050E00E942C1AC13009F451C10CF037C17B
:10196000C11131CFC7BC20939501309396014093AC
:1019700097015093980180916E00826080936E0071
:1019800022CF14BC15BC84B5826084BD85B581604E
:1019900085BDE0E1FAE0E491F0E0EE0FFF1FE350D7
:1019A000F64F85919491E3EEF9E0E491E09388019C
:1019B000C0E06CCF10928000109281008091810075
:1019C0008860809381008091810081608093810094
:1019D000E0E1FAE0E491F0E0EE0FFF1FE350F64F94
:1019E00085919491E3EEF9E0E491E09387014ECF85
:1019F00010929000109291008091910088608093E5
:101A0000910080919100816080939100E0E1FAE083
:101A1000E491F0E0EE0FFF1FE350F64F85919491B3
:101A20009093860180938501E3EEF9E0E491E093E1
:101A300084012CCF1092C0001092C1008091C1008F
:101A400088608093C1008091C10081608093C10053
:101A5000E0E1FAE0E491F0E0EE0FFF1FE350F64F13
:101A600085919491E3EEF9E0E491E09383010ECF48
:101A70008FEFC816D104E104F10409F00CF461C041
:101A800068E478EE81E090E0A50191010E94FA19E6
:101A900069017A0181E0C81AD108E108F108CC2374
:101AA00009F40BC18FEFC816D104E104F10409F069
:101AB00008F441CF62E17AE780E090E0A50194016B
:101AC0000E94FA1969017A0181E0C81AD108E10877
:101AD000F1088FEFC816D104E104F10409F008F40D
:101AE0002ACF730162019AE0F594E794D794C794E2
:101AF0009A95D1F781E0C81AD108E108F1081BCF07
:101B000062E17AE780E090E0A50194010E94FA1971
:101B100069017A0181E0C81AD108E108F1088FEF64
:101B2000C816D104E104F10411F008F08FC084E07C
:101B300095B5987F892B85BDFECE81E0CC23C1F37E
:101B4000FACE82E0FBCFB12CA12C60E072E18AE7F3
:101B500090E0A50191010E94FA1969017A0181E0E2
:101B6000C81AD108E108F10891E0C114D10481E05C
:101B7000E806F10484F068E478EE81E090E0A501E5
:101B800091010E94FA1969017A0181E0C81AD1080D
:101B9000E108F10893E0C13039F480918100887F39
:101BA000892B80938100C7CEC33039F48091910096
:101BB000887F892B80939100BECEC43009F0BBCEC4
:101BC0008091C100887F892B8093C100B4CEC3303F
:101BD00059F1C43009F0F7CDC092CF0020938901AC
:101BE00030938A0140938B0150938C018091720055
:101BF000806480937200E7CD2FEF3FEFA901D09270
:101C00008900C09288002093910130939201409303
:101C100093015093940180916F00826080936F00D4
:101C2000D2CD2FEF3FEFA901D0929900C09298003A
:101C300020938D0130938E0140938F01509390013A
:101C400080917100826080937100BDCD730162014B
:101C50008AE0F594E794D794C7948A95D1F781E008
:101C6000C81AD108E108F10885E062CF68E478EE8F
:101C700081E090E0A50191010E94FA1969017A01C1
:101C800081E0C81AD108E108F1088FEFC816D10425
:101C9000E104F10409F00CF44ECE64E274EF80E04C
:101CA00090E0A50194010E94FA1969017A0181E08E
:101CB000C81AD108E108F108F5CE8FEFC816D10493
:101CC000E104F10411F00CF01BCF83E031CFC130FF
:101CD00009F492CF3CF42FEF3FEFA901CC2309F494
:101CE00041CE7BCDC33009F49CCF2FEF3FEFA9014C
:101CF000C43009F471CF71CD64EB70E00C94B80B73
:101D00008BE092E00E947C0E90E080E00E947C0ECE
:101D100087E194E00E947C0E8BE092E00E947C0EB2
:101D200090E080E00E947C0E87E194E00E947C0EAF
:101D300090E080E00E947C0E86E091E00C947C0EA6
:101D4000CF93DF93EC019A01AB0160E070E084E394
:101D500093E40E94621A0E94D41ACE01DF91CF91BF
:101D60000C94B80BCF92DF92EF92FF926B017C0143
:101D7000BC01A6018BE092E00E94A00EB701A60173
:101D800090E080E00E94A00EB701A60183E992E0F6
:101D90000E94A00EB701A6018BE492E00E94A00E63
:101DA000B701A60190E080E00E94A00EB701A60155
:101DB0008AEB92E00E94A00EB701A60190E080E0BD
:101DC0000E94A00EB701A60183E992E00E94A00E36
:101DD000B701A60190E080E00E94A00EB701A60125
:101DE00080E193E00E94A00EB701A60190E080E0A0
:101DF0000E94A00EB701A6018AEB92E00E94A00EFD
:101E0000B701A60180E793E00E94A00EB701A601EA
:101E100090E080E00E94A00EB701A60180E193E06F
:101E20000E94A00EB701A60190E080E0FF90EF9025
:101E3000DF90CF900C94A00E089590E080E008957C
:101E4000FC0101900020E9F73197AF01481B590BC5
:101E5000BC018AE995E00C9426088F929F92AF927C
:101E6000BF920F931F93CF93DF93CDB7DEB7A197A8
:101E70000FB6F894DEBF0FBECDBF19A2423008F4F2
:101E80004AE08E010F5D1F4F842E912CB12CA12CA6
:101E9000A50194010E942C1AE62FB901CA01EA306B
:101EA000F4F4E05DD801EE938D01232B242B252B38
:101EB00079F790E080E0109719F0CD010E94200F93
:101EC000A1960FB6F894DEBF0FBECDBFDF91CF91C4
:101ED0001F910F91BF90AF909F908F900895E95CF4
:101EE000E1CFCF92DF92EF92FF92CF93DF936B011E
:101EF0007C016DE28AE995E00E945E06EC016627AE
:101F00007727CB016C197D098E099F094AE00E9451
:101F10002D0F8C0F9D1FDF91CF91FF90EF90DF90E1
:101F2000CF900895BC01990F880B990B97FD0C94E5
:101F3000710F4AE00C942D0FCF93DF93D82FC62F4B
:101F400084E593E00E9474066D2F70E090E080E0DD
:101F50004AE00E942D0F86E493E00E9474066C2FE5
:101F600070E090E080E04AE00E942D0F81E491E073
:101F7000DF91CF910C94200F0C94E419CF92DF9253
:101F8000EF92FF92CF93DF93EC0170E090E080E05E
:101F90000E940A1B9B01AC016AE979E989E59FE38C
:101FA0000E94291C6B017C01BE01DD0F880B990B7F
:101FB0000E940C1BA70196010E94BC1B6B017C01B7
:101FC00020E030E040E051E40E945D1A87FD0CC043
:101FD000C701B6010E94D41ACB01DF91CF91FF90C7
:101FE000EF90DF90CF90089588E090E0F6CFEF92E9
:101FF000FF920F931F93CF93DF93C0910C0187E65D
:1020000093E00E9474066C2F70E090E080E04AE05C
:102010000E942D0F84E693E00E947406D0E0C15028
:10202000D048CC0FDD1F8E0105591E4FF80180816D
:1020300091810E94920F8FE593E00E947406C3592C
:10204000DE4F888199810E94920F8CE593E00E9477
:10205000740688819981F80120813181821B930B5C
:102060000E94920F8AE593E00E94740681E491E059
:102070000E94200FC091550180915301C89FC02D2F
:10208000112480910C0190E0FC01EE0FFF1FE55937
:10209000FE4F00811181880F991FFC01E759FE4F07
:1020A000E080F18040E070E060E08AE590E00E942E
:1020B000A40B6C2F80ED92E00E94BE0FBC01C70103
:1020C0000E94B80B6C2F8DE290E00E94BE0F00972B
:1020D00029F040E070E060E00E94A40B6C2F88E6DD
:1020E00091E00E94BE0FBC01C8010E94B80B60E0E5
:1020F00090E080E0DF91CF911F910F91FF90EF90E2
:102100000C94430B2F923F924F925F926F927F926B
:102110008F929F92AF92BF92CF92DF92EF92FF92F7
:102120000F931F93CF93DF9300D000D0CDB7DEB7CE
:102130008B83809355018A3008F468C02091540144
:102140002F5F2B8320935401409153014F5F4983AC
:102150004093530114E080E193E00E947C0E90E0F4
:1021600080E00E947C0E1150B1F780E193E00E9464
:102170007C0E90E080E00E947C0E8AEB92E00E9450
:102180007C0E90E080E00E947C0E83E992E00E9449
:102190007C0E90E080E00E947C0E8BE492E00E9436
:1021A0007C0E90E080E00E947C0E612F70E090E059
:1021B00080E00E940A1B9B01AC0160E070E080E9B6
:1021C0009FE30E94291C0E94B20E1F5F1F3F69F708
:1021D00010E08981181750F480E193E00E947C0E92
:1021E00090E080E00E947C0E1F5FF3CF0E94800E83
:1021F00040E070E060E088EE93E00E94A40B69810B
:102200008B810E949C0F109255011B82809154017A
:10221000811124C09B81913009F58FB7F894C0904B
:102220005701D0905801E0905901F0905A018FBFAA
:1022300084E491E00E94200F4AE0C701B6010E94A9
:102240002D0F81E491E00E94200FC114D104E1041C
:10225000F10421F0C701B6010E94DB1980915501FC
:10226000882351F080917301909174019C012C534B
:1022700031092D3A334010F08BE092E090936C01DD
:1022800080936B018BE691E09A83898322E1222E71
:1022900021E0322E7C0134E0C32ED12C80915501F7
:1022A000811168C0F10102811381F7011383028358
:1022B000F2E0EF0EF11C22E0220E311C41E0C41AC4
:1022C000D10861F781E080930C0181E793E00E94DF
:1022D0007406EB816E2F70E090E080E04AE00E948F
:1022E0002D0F8EE693E00E9474061B82E981FA812D
:1022F00061917191FA83E983072E000C880B990B89
:1023000097FF92C00E94710FFB81F43021F08CE6A0
:1023100093E00E9474062B812F5F2B83253031F7C9
:1023200081E491E00E94200F0F900F900F900F908A
:10233000DF91CF911F910F91FF90EF90DF90CF90A1
:10234000BF90AF909F908F907F906F905F904F90D5
:102350003F902F900C94F70F81E019C0F701808116
:1023600091810817190731F0C801CC978D3A934035
:1023700008F49BCF0E948C1922E030E040E050E04E
:102380000E94FA19672B682B692B31F38FEFF70145
:10239000008111811C82882E880F9908AA08BB0829
:1023A000FC81FC151D04D4F6609155018091530108
:1023B000689F602D112470E090E080E00E940A1B6D
:1023C0009B01AC0166E676E686E29FE30E94291C4B
:1023D00020E030E04CE353E40E94BC1B0E94D41A7E
:1023E0002B013C0162E070E080E090E023E04216C7
:1023F00051046104710474F00E948C19A3019201CC
:1024000022503109410951090E94FA196E5F7F4F2C
:102410008F4F9F4FA50194010E941B1E060F171F8F
:102420004C814F5F4C83BCCF4AE00E942D0F6CCF94
:10243000CF93DF93109254011092530160E080E03B
:102440000E949C0FD0915301C0E0DC1751F080E155
:1024500093E00E947C0E90E080E00E947C0ECF5FB3
:10246000F4CF60E070E080E89FE30E94B20E0E942B
:10247000800E40E070E060E084EF91E00E94A40BE9
:1024800080E0DF91CF910C948210EF92FF920F9336
:102490001F93CF93DF93D62FC42F40E0BC018AEF68
:1024A00090E00E94A40BDD2309F452C0CC2309F470
:1024B00042C0C0915501CF5F10E000E095E0E92EE9
:1024C000F12C0C1740F561E170E084EC90E00E9483
:1024D000B80B62E270E086E091E00E94B80B62E225
:1024E00070E08AE491E00E94B80B64E470E08BE055
:1024F00092E00E94B80B0F5F1F4FC801B7010E9406
:102500002B1E892BF1F640E070E060E088E890E057
:102510000E94A40BD6CF40E070E060E084EF91E031
:102520000E94A40B8C2FDF91CF911F910F91FF90F0
:10253000EF900C94821080910C018F5F80930C01BE
:10254000DF91CF911F910F91FF90EF900C94F70FB7
:102550001091550168EE73E082E690E00E94B80B9E
:1025600040E070E060E088EE93E00E94A40BD0E0D1
:10257000C0E085E0E82EF12CC11738F561E170E08C
:1025800086E091E00E94B80B62E270E085EA90E09C
:102590000E94B80B62E270E083E890E00E94B80B02
:1025A00064E470E082E690E00E94B80B2196CE01D0
:1025B000B7010E942B1E892BF9F640E070E060E025
:1025C00088E890E00E94A40BD7CF40E070E060E084
:1025D00088EE93E00E94A40BDF91CF911F910F91A1
:1025E000FF90EF900C9418121F920F920FB60F925B
:1025F00011248F939F938091E1009091E100937F4C
:102600009093E10083FF0FC01092E90091E0909356
:10261000EB001092EC0092E39093ED001092820197
:1026200098E09093F00082FF22C093E09093E9003D
:102630009091F200992319F09AE39093E800909119
:102640006401992341F09091640191509093640149
:10265000911101C05D9A90918101992341F090916F
:102660008101915090938101911101C0289A84FFBA
:1026700018C08091E2008E7E81608093E20080919C
:10268000E1008F7E8093E100809165018E7E806104
:10269000809365019F918F910F900FBE0F901F90B7
:1026A000189580FFF7CF8091E2008E7E8061809345
:1026B000E2008091E1008E7E8093E10080916501CF
:1026C0008E7E8160E5CF1F920F920FB60F9211247C
:1026D000CF92DF92EF92FF920F931F932F933F932E
:1026E0004F935F936F937F938F939F93AF93BF931A
:1026F000EF93FF93CF93DF93CDB7DEB76C97DEBF39
:10270000CDBF1092E9008091E80083FF25C068E00A
:10271000CE0145960E94240682EF8093E8008D89C1
:1027200087FF39C09091E80090FFFCCF982F9076FA
:1027300009F034C19E894F89588D2F89F88C9111E9
:1027400031C0803861F5809166018093F10010926C
:10275000F1008EEF8093E8006C960FB6F894DEBF20
:102760000FBECDBFDF91CF91FF91EF91BF91AF91A0
:102770009F918F917F916F915F914F913F912F9199
:102780001F910F91FF90EF90DF90CF900F900FBEB1
:102790000F901F9018959EEF9093E800C7CF10926E
:1027A000F100D5CF913059F48111D3CF413051058B
:1027B00081F6809166018D7F80936601CACF933048
:1027C00049F48111C6CF4130510519F68091660157
:1027D0008260F2CF953041F48091E80080FFFCCF19
:1027E00020682093E300B5CF963009F0A9C00B8D87
:1027F0001C8D22E01092E90010926201109261019A
:10280000F2122EC01092600110925F010E94F30537
:102810001F8299E09983FA8291E09E8390EA9887DB
:102820009AEF99872091610130916201275F3F4FB4
:102830003C832B838D831092E900109262011092E9
:1028400061011093600100935F0149E050E0BE0117
:102850006F5F7F4F80E00E94CD050E94F30579CF26
:102860001093600100935F010E948B05DC011296BA
:102870000D911C910115110509F451C1D801ED917B
:10288000FC910480F581E02DBE016B5E7F4FC80195
:102890000995009709F03EC1F80100851185EACF3E
:1028A000F3E0FF120EC08F89882309F440C0823004
:1028B00061F440E867E089E199E00E943A168111ED
:1028C00048CF81E28093EB0047CF813029F440E884
:1028D0006BE08DE099E0F1CF833099F70E948B0592
:1028E000DC011296ED90FC908E010F5F1F4F680186
:1028F000E114F10479F0D701ED91FC910680F781A4
:10290000E02DB801C7010995080F111DF701E084FA
:10291000F184EECFD8011C92F60101900020E9F776
:102920003197BF016C197D0940E0C601C6CF67EF42
:1029300078E0FB01449150E080E80E94CD0509CF8A
:10294000973009F4BECF983021F481E08093F100F4
:1029500000CF993009F0FDCE837009F0B2CFEDE1E0
:10296000F1E081E031E096E32191222371F0809340
:10297000E9003093EB00DF0111972C912093EC00DC
:102980009093ED008F5F873079F78EE78093EA00B0
:102990001092EA008F8980938201DBCE8B8D9C8D13
:1029A0001092E9001092620110926101909360010F
:1029B00080935F01898D811192C08E899D89913AA2
:1029C00049F4813209F07DCF47E050E064E071E0E6
:1029D00080E0B3CF913209F074CF833269F48F89EC
:1029E000988DB0E0A0E08093000190930101A09346
:1029F0000201B0930301ADCE803269F48091E8000A
:102A000082FFFCCF67E084E091E00E9424068BEF18
:102A10008093E8009ECE823209F09BCE8F8980930E
:102A20000B01EEEFFFE7859194918B3F9C4D51F1A7
:102A3000E0E0F8E08091040190910501A091060189
:102A4000B0910701803B9440A105B105F1F480915C
:102A50000B0180FD1AC0EE3F8AE0F80789F587E791
:102A600097E791838083809160008093630188E180
:102A70009BE00FB6F894A895809360000FBE9093EA
:102A8000600067CEEEEFFAE0D5CF80819181873785
:102A9000974709F05ECEA895809160008861809389
:102AA00060008091630180936000EE3F2AE0F207AE
:102AB00089F08091FE0A9091FF0A9183808349CE2C
:102AC000808191818737980751F29093FF0A809314
:102AD000FE0AC5CF1092FF0A1092FE0A3ACE0E945B
:102AE0008B05DC0112960D911C910115110509F45D
:102AF000E8CED801ED91FC910190F081E02DBE016E
:102B00006B5E7F4FC8010995811123CEF8010085C6
:102B10001185EBCF181619060CF41BCED2CEF1E0BE
:102B2000FF12BECE6BEF78E004CF1F920F920FB66C
:102B30000F9211248F939F93AF93BF93EF93FF93C3
:102B400080918D0190918E01A0918F01B0919001A3
:102B5000892B8A2B8B2BA1F190918401E091850127
:102B6000F091860180818927808380918D019091E9
:102B70008E01A0918F01B0919001181619061A06C6
:102B80001B069CF480918D0190918E01A0918F0184
:102B9000B09190010197A109B10980938D019093A3
:102BA0008E01A0938F01B0939001FF91EF91BF919F
:102BB000AF919F918F910F900FBE0F901F9018951E
:102BC000809171008D7F8093710080918401E091EC
:102BD0008501F09186019081809589238083E5CFDE
:102BE0001F920F920FB60F9211242F933F938F9342
:102BF0009F93AF93BF938091570190915801A091FB
:102C00005901B0915A013091560123E0230F2D371D
:102C100058F50196A11DB11D2093560180935701CF
:102C200090935801A0935901B0935A0180915B0190
:102C300090915C01A0915D01B0915E010196A11D92
:102C4000B11D80935B0190935C01A0935D01B093F3
:102C50005E01BF91AF919F918F913F912F910F9006
:102C60000FBE0F901F90189526E8230F0296A11D06
:102C7000B11DD2CFEF92FF920F931F93CF93DF93AB
:102C8000F82E192FE62E042F81E0860F880F0E9460
:102C90009F0583E00E949F05CF2DD12FEC0EFD2EC6
:102CA000F11CCE15DF05B9F007FF13C0FE018491BA
:102CB0000E949F05182F80E00E949F058123219686
:102CC0008111EFCFDF91CF911F910F91FF90EF9086
:102CD00008958881EDCF81E0F5CFEAE9F5E0138230
:102CE000128288EE93E0A0E0B0E084839583A6830F
:102CF000B78387E291E0918380838FEF9FEF958781
:102D00008487EAEEF5E01382128289E391E09183F1
:102D100080830895789484B5826084BD84B5816091
:102D200084BD85B5826085BD85B5816085BD809196
:102D30006E00816080936E0010928100809181000E
:102D40008260809381008091810081608093810006
:102D500080918000816080938000809191008260EA
:102D60008093910080919100816080939100809187
:102D700090008160809390008091C1008460809376
:102D8000C1008091C10082608093C1008091C10028
:102D900081608093C1008091C30081608093C300F3
:102DA0008091C00082608093C0008091C2008160E9
:102DB0008093C20080917A00846080937A00809131
:102DC0007A00826080937A0080917A00816080939B
:102DD0007A0080917A00806880937A001092820154
:102DE00010926601109265018091D70081608093F6
:102DF000D70080EA8093D80089B5806189BD89B504
:102E0000826089BD09B400FEFDCF61E070E080E022
:102E100090E00E94F3078091D8008F7C80618093BE
:102E2000D8008091E000807F8093E0008091E100F5
:102E30008E7E8093E1008DE08093E200559A209A87
:102E400061E089E00E949D0761E089E00E946F07D0
:102E500062E082E10E949D0762E085E10E949D0799
:102E600081EC80937C0085B1806F85B984B1877EC9
:102E700084B984B1876E84B95E9A5F988AB1806D97
:102E80008AB9769A6E9881B3806F81BB899880B336
:102E90008D7080BB80E58CBD81E08DBD85E090E0CC
:102EA0000E94830A5F9A85E090E00E94830A5E9800
:102EB0005C98E1EDF9E084918EBD00000DB407FE51
:102EC000FDCF319649E0EE3DF407A9F75C9A81E821
:102ED00080936400809165008160809365000E940A
:102EE000400B0E94880A87FF15C05C9885EA8EBD5A
:102EF00000000DB407FEFDCF5C9A2E982F982D98F8
:102F00008091640080628093640081E083BF889533
:102F100013BEFCCF0E94880A82FF48C02D980E94F1
:102F2000880A84788438E1F40E94810A88EC90E071
:102F30000E94830A2F9882E090E00E94E4198F3F5C
:102F400029F06FEF82E090E00E94EC1984EF91E0AD
:102F50000E94830A2F9A0E94880A84788438D9F3C1
:102F60000E94880A84718431E1F40E94810A88EC0D
:102F700090E00E94830A2E9882E090E00E94E4197B
:102F8000882329F060E082E090E00E94EC1984EF51
:102F900091E00E94830A2E9A0E94880A84718431EB
:102FA000D9F388EC90E00E94830AB4CF0E94810A92
:102FB00082E090E00E94BC0F882309F49DC03E9AF5
:102FC0003F9A81E090E00E94BC0F582F5470952EDC
:102FD00081FF10C051112E98C1EFDFEF08E010E023
:102FE000B8E58B2E0E94880A86FF89C02E9A2F9AF8
:102FF0000E94810A82E390E00E94830A0E94880A6C
:103000008111F8CF8FEF9FEF9093A7058093A605CE
:103010006AE070E080E090E00E94F30740E070E03A
:1030200060E08AEF90E00E94A40B0E941812C0E0BA
:10303000D0E085E10E944607892BF9F420910C012C
:10304000822F90E041E0243009F040E0DC01AA0F3B
:10305000BB1FA559BE4F880F991FFC01E759FE4FB2
:1030600061E02D913C9180819181281739070CF006
:1030700060E082E090E00E94451282E10E944607F3
:10308000892BF9F420910C01822F90E041E024304B
:1030900009F040E0DC01AA0FBB1FA559BE4F880F05
:1030A000991FFC01E759FE4F61E02D913C91808111
:1030B0009181821793070CF060E081E090E00E941C
:1030C000451283E10E944607892B81F487E00E9424
:1030D0004607892B59F488E00E944607892B31F472
:1030E00041E061E090E080E00E944512209709F401
:1030F000A0CF0E9400009DCF3E983F9862CF9920BC
:1031000029F0C430D10511F42E9A2F9881E00E9445
:1031100041059E01D7FF04C0222733272C1B3D0BFE
:1031200027703327CE01D7FD0796A3E095958795A5
:10313000AA95E1F7D7FF05C00197F801E21BF30B51
:103140009F01BC017695762F662777956795665621
:103150007E4FF12CE12C3801621A730A8E3FFFEF8B
:103160009F0709F43DC08E9CD0018F9CB00D1124A7
:1031700050E040E0AF5DB64F5B01E0E8AE0EB11C41
:103180008F3F980791F0FD01E40FF51FE4916B016B
:10319000C40ED51EF0E02F01022E01C0440C0A948B
:1031A000EAF7F60154884528448A2115310599F03B
:1031B000FD01E40FF51FE4916501C40ED51EF0E09A
:1031C0002F01062C02C0559447940A94E2F7F601A9
:1031D00054884528448A4F5F5F4F4835510581F632
:1031E000019660587F4FEA94EF2809F045C00E948D
:1031F000400B8FE090E00E94830A2196C931D105EF
:1032000009F0F0CE992011F02F9A2D9880E991E0E5
:103210000E94830A0E94810A81E090E00E94BC0F14
:1032200080FFE8CE8AE090E00E94BC0F9FEF980FED
:103230009E3F08F0DFCE22E330E030936A01209316
:10324000690128E330E03093680120936701CBE007
:10325000D0E0682F8AEE95E00E94D60ACE010E9447
:10326000BC0F2196C131D105A1F70E94400B88EE19
:1032700093E00E94830ABECEEE24E394F12C6ECF3D
:103280008F929F92AF92BF92CF92DF92EF92FF9276
:10329000CF93DF93EC01688179818A819B816115ED
:1032A00071058105910521F464E279ED8BE597E0E4
:1032B0002DE133EF41E050E00E94FA1949015A0133
:1032C0009B01AC01A7EAB1E40E94191A6B017C01D1
:1032D000ACEEB4EFA50194010E94271AC60ED71ECA
:1032E000E81EF91EF7FE06C081E0C81AD108E10801
:1032F00080E8F80AC882D982EA82FB82C701B60157
:103300009F77DF91CF91FF90EF90DF90CF90BF90AC
:10331000AF909F908F9008958F929F92AF92BF929F
:10332000CF92DF92EF92FF9260910E0170910F01A8
:103330008091100190911101611571058105910530
:1033400021F464E279ED8BE597E02DE133EF41E084
:1033500050E00E94FA1949015A019B01AC01A7EA09
:10336000B1E40E94191A6B017C01ACEEB4EFA50127
:1033700094010E94271AC60ED71EE81EF91EF7FEFA
:1033800006C081E0C81AD108E10880E8F80AC092B6
:103390000E01D0920F01E0921001F0921101C701CD
:1033A000B6019F77FF90EF90DF90CF90BF90AF90E6
:1033B0009F908F90089560930E0170930F018093FA
:1033C0001001909311010895F999FECF92BD81BD2E
:1033D000F89A992780B50895262FF999FECF1FBA3C
:1033E00092BD81BD20BD0FB6F894FA9AF99A0FBE2E
:1033F00001960895052E97FB1EF400940E94111A61
:1034000057FD07D00E942C1A07FC03D04EF40C94F1
:10341000111A50954095309521953F4F4F4F5F4F72
:10342000089590958095709561957F4F8F4F9F4F30
:1034300008950E944E1AA59F900DB49F900DA49FD1
:10344000800D911D11240895B7FF0C94191A0E9444
:10345000191A821B930B0895A1E21A2EAA1BBB1BFB
:10346000FD010DC0AA1FBB1FEE1FFF1FA217B30750
:10347000E407F50720F0A21BB30BE40BF50B661F66
:10348000771F881F991F1A9469F76095709580952A
:1034900090959B01AC01BD01CF010895A29FB001A1
:1034A000B39FC001A39F700D811D1124911DB29F78
:1034B000700D811D1124911D08950E94471B08F471
:1034C00081E008950E94761A0C94821B0E947B1B57
:1034D00058F00E94741B40F029F45F3F29F00C94CF
:1034E0006B1B51110C94B61B0C94711B0E94931B07
:1034F00068F39923B1F3552391F3951B550BBB2723
:10350000AA2762177307840738F09F5F5F4F220F67
:10351000331F441FAA1FA9F335D00E2E3AF0E0E85E
:1035200032D091505040E695001CCAF72BD0FE2FA8
:1035300029D0660F771F881FBB1F2617370748073C
:10354000AB07B0E809F0BB0B802DBF01FF279358F4
:103550005F4F3AF09E3F510578F00C946B1B0C9432
:10356000B61B5F3FE4F3983ED4F386957795679555
:10357000B795F7959F5FC9F7880F911D9695879529
:1035800097F90895E1E0660F771F881FBB1F621748
:1035900073078407BA0720F0621B730B840BBA0B06
:1035A000EE1F88F7E09508950E94DB1A6894B11128
:1035B0000C94B61B08950E949B1B88F09F5798F0AF
:1035C000B92F9927B751B0F0E1F0660F771F881F28
:1035D000991F1AF0BA95C9F714C0B13091F00E9442
:1035E000B51BB1E008950C94B51B672F782F882781
:1035F000B85F39F0B93FCCF3869577956795B39569
:10360000D9F73EF490958095709561957F4F8F4FD7
:103610009F4F0895E89409C097FB3EF490958095DC
:10362000709561957F4F8F4F9F4F9923A9F0F92F88
:1036300096E9BB279395F695879577956795B79506
:10364000F111F8CFFAF4BB0F11F460FF1BC06F5FEC
:103650007F4F8F4F9F4F16C0882311F096E911C0FE
:10366000772321F09EE8872F762F05C0662371F01F
:1036700096E8862F70E060E02AF09A95660F771F33
:10368000881FDAF7880F9695879597F90895990F0F
:103690000008550FAA0BE0E8FEEF16161706E8071C
:1036A000F907C0F012161306E407F50798F0621B3D
:1036B000730B840B950B39F40A2661F0232B242B12
:1036C000252B21F408950A2609F4A140A6958FEF31
:1036D000811D811D089597F99F6780E870E060E083
:1036E00008959FEF80EC089500240A94161617069B
:1036F00018060906089500240A94121613061406E3
:1037000005060895092E0394000C11F4882352F045
:10371000BB0F40F4BF2B11F460FF04C06F5F7F4FFD
:103720008F4F9F4F089557FD9058440F551F59F0E4
:103730005F3F71F04795880F97FB991F61F09F3F9E
:1037400079F087950895121613061406551FF2CFC7
:103750004695F1DF08C0161617061806991FF1CF17
:1037600086957105610508940895E894BB2766273E
:103770007727CB0197F908950E94CF1B0C94821BE9
:103780000E94741B38F00E947B1B20F0952311F0DF
:103790000C946B1B0C94711B11240C94B61B0E948F
:1037A000931B70F3959FC1F3950F50E0551F629FD7
:1037B000F001729FBB27F00DB11D639FAA27F00D8A
:1037C000B11DAA1F649F6627B00DA11D661F829FB1
:1037D0002227B00DA11D621F739FB00DA11D621F96
:1037E000839FA00D611D221F749F3327A00D611DB3
:1037F000231F849F600D211D822F762F6A2F112495
:103800009F5750409AF0F1F088234AF0EE0FFF1FC7
:10381000BB1F661F771F881F91505040A9F79E3F1E
:10382000510580F00C946B1B0C94B61B5F3FE4F3C6
:10383000983ED4F3869577956795B795F795E79574
:103840009F5FC1F7FE2B880F911D9695879597F97D
:103850000895FA01EE0FFF1F309621053105A1F101
:103860006115710561F48038BFE39B0749F16894E5
:103870009038810561F08038BFEF9B0741F09923B4
:103880004AF5FF3FE1053105210519F1E894089457
:10389000E795D901AA2329F4AB2FBE2FF85FD0F307
:1038A00010C0FF5F70F4A695E0F7F73950F019F0FB
:1038B000FF3A38F49F779F930DD00F9007FC9058F4
:1038C000089546F00C94711B60E070E080E89FE37F
:1038D00008954FE79F775F934F933F932F930E94F5
:1038E000241D2F913F914F915F910E94BC1B0C941E
:1038F000811C29F416F00C946B1B0C94B51B0C94D2
:10390000711B0E949B1BA8F39638A0F707F80F9233
:10391000E8942BE33AEA48EB5FE70E94D21B0F9250
:103920000F920F924DB75EB70F920E946C1DECEA9A
:10393000F0E00E94B31C4F915F91EF91FF91E595EC
:10394000EE1FFF1F49F0FE57E0684427EE0F441FAB
:10395000FA95E1F74195550B0E94E61C0F9007FE82
:103960000C94DA1C0895DF93CF931F930F93FF926B
:10397000EF92DF927B018C01689406C0DA2EEF0192
:103980000E94CF1BFE01E894A591259135914591A8
:103990005591A6F3EF010E94B81DFE019701A80101
:1039A000DA9469F7DF90EF90FF900F911F91CF911C
:1039B000DF9108959B01AC0160E070E080E89FE337
:1039C0000C94621A0C946B1B0C940D1E0E949B1B92
:1039D000D8F39923C9F3940F511DA3F3915050408C
:1039E00094F059F0882332F0660F771F881F9150AA
:1039F0005040C1F79E3F51052CF7880F911D9695B9
:103A0000879597F908955F3FACF0983E9CF0BB27EF
:103A1000869577956795B79508F4B1609395C1F74A
:103A2000BB0F58F711F460FFE8CF6F5F7F4F8F4FE8
:103A30009F4FE3CF0C94B61B16F00C940D1E0C9404
:103A4000711B68940C946B1B0E949B1BA8F3992319
:103A5000C1F3AEF3DF93CF931F930F93FF92C92F60
:103A6000DD2788232AF02197660F771F881FDAF752
:103A700020E030E040E85FEB9FE3883920F0803EB3
:103A800038F021968F770E94A11DE4EDF0E004C08C
:103A90000E94A11DE1E0F1E00E94B31C8B01BE0178
:103AA000EC01FB2E6F5771097595771F880B990BE9
:103AB0000E940C1B28E132E741E35FE30E94CF1B29
:103AC000AF2D9801AE01FF900F911F91CF91DF9123
:103AD0000E94B81D0C94821BFA01DC01AA0FBB1FC7
:103AE0009B01AC01BF5728F4222733274427507885
:103AF00020C0B75190F4AB2F0024469537952795F9
:103B0000011CA395D2F3002071F0220F331F441F34
:103B1000B395DAF30ED00C94A01D61307105A0E8C6
:103B20008A07B94630F49B01AC01662777278827BE
:103B30009078309621F02083318342835383089517
:103B40005058BB27AA270E94B81D0C94821B0E94C4
:103B5000741B38F00E947B1B20F039F49F3F19F44E
:103B600026F40C94711B0EF4E095E7FB0C946B1B90
:103B7000E92F0E94931B58F3BA1762077307840753
:103B8000950720F079F4A6F50C94B51B0EF4E0959A
:103B90000B2EBA2FA02D0B01B90190010C01CA0107
:103BA000A0011124FF27591B99F0593F50F4503EB2
:103BB00068F11A16F040A22F232F342F4427585FA4
:103BC000F3CF469537952795A795F0405395C9F7BC
:103BD0007EF41F16BA0B620B730B840BBAF0915074
:103BE000A1F0FF0FBB1F661F771F881FC2F70EC013
:103BF000BA0F621F731F841F48F4879577956795E6
:103C0000B795F7959E3F08F0B0CF9395880F08F0D1
:103C10009927EE0F9795879508959F3F31F0915022
:103C200020F4879577956795B795880F911D9695A0
:103C3000879597F90895DB018F939F930E94191A36
:103C4000BF91AF91A29F800D911DA39F900DB29F38
:103C5000900D1124089597FB072E16F4009407D0B9
:103C600077FD09D00E944C1E07FC05D03EF49095CC
:103C700081959F4F0895709561957F4F0895EE0F40
:103C8000FF1F0590F491E02D09940E944E1AB7FF92
:103C90000895821B930B0895AA1BBB1B51E107C01B
:103CA000AA1FBB1FA617B70710F0A61BB70B881FCC
:103CB000991F5A95A9F780959095BC01CD0108955B
:043CC000F894FFCFA6
:103CC400FFFFFFFF00E100000000000001FF010012
:103CD40000000B0293024B0210030B0200C180810F
:103CE400000000000000005E0626089A068F06E029
:103CF400069E06BC0600000000D60A31061D0F1CF5
:0E3D04000F0D0A002020534545443A200000D0
:00000001FF
